:1000000087C00000ACC00000AAC00000A8C000006B
:10001000A6C00000A4C00000A2C00000A0C0000054
:100020009EC000009CC000009AC0000098C0000064
:1000300096C0000094C000000C94160990C0000007
:100040008EC000008CC000008AC0000088C0000084
:1000500086C0000084C0000082C0000080C0000094
:100060000C9462097CC000007D098B098B098B0907
:100070008B098B098B098B097D098B098B098B09EE
:100080008B098B098B098B09A7098B098B098B09B4
:100090008B098B098B098B09E3098B098B098B0968
:1000A0008B098B098B098B09C2098B098B098B0979
:1000B0008B098B098B098B09E3098B098B098B0948
:1000C0008B098B098B098B098B098B098B098B0990
:1000D0008B098B098B098B09DC098B098B098B092F
:1000E0008B098B098B098B09E3098B098B098B0918
:1000F0008B098B098B098B098B098B098B098B0960
:100100008B098B098B098B099809312E31007704F3
:1001100011241FBECFEFD8E0DEBFCDBF15E0A0E0B9
:10012000B1E0E2E6F4E102C005900D92A231B10720
:10013000D9F725E0A2E1B5E001C01D92A63AB207C9
:10014000E1F710E0C8E8D0E004C02197FE010E946A
:10015000290AC738D107C9F7F6D30C942F0A50CF14
:10016000E0916E05F0916F05309711F062E009940F
:1001700008950F931F93CF93DF9300D0CDB7DEB7D1
:10018000182F69834A83BE016F5F7F4F709390057C
:1001900060938F05AE014D5F5F4F50939205409382
:1001A00091058093930581E0809394058093960553
:1001B0001092970510929C0510929B0510929A053B
:1001C000E0919805F0919905309721F001E021E048
:1001D000812F09958091BC00816A8093BC00809139
:1001E00094058111FCCF80919705882311F0812F10
:1001F000B7DF0F900F90DF91CF911F910F9108956E
:100200000F931F93CF93DF9300D0CDB7DEB7182F96
:1002100069834A83BE016F5F7F4F7093900560933F
:100220008F05AE014D5F5F4F50939205409391054E
:100230008093930581E080939405809396051092B6
:10024000970510929C0510929B0510929A05E091DB
:100250009805F0919905309721F001E021E0812F78
:1002600009958091BC00816A8093BC0080919405BF
:100270008111FCCF80919705882311F0812F70DFC9
:100280000F900F90DF91CF911F910F91089598E2F9
:1002900088E10FB6F894A895809360000FBE909304
:1002A0006000299A2A9A2E9A5E9842985F9829E1CE
:1002B00030E088E893E1F9013197F1F70197D9F738
:1002C000199908C0299A1A9908C02A9A1E9908C033
:1002D0002E9AEFCF29981A9BF8CF2A981E9BF8CF19
:1002E0002E98E7CF0F931F93CF93DF931F92CDB735
:1002F000DEB780918D05882389F080918C0582304E
:1003000069F041E050E060E070E08091A50578DFA1
:100310000F90DF91CF911F910F9108954EE150E022
:1003200060E070E08091A5056BDF40E150E060E1A6
:1003300070E08091A50564DF80917105813009F43A
:10034000BFC046E050E068E870E08091A50558DF46
:1003500010918A0583E18983BE016F5F7F4F70939F
:10036000900560938F05AE014E5F5F4F50939205ED
:10037000409391051093930581E08093940510922A
:1003800096051092970510929C0510929B0510926D
:100390009A05E0919805F0919905309721F000E0D9
:1003A00021E0812F09958091BC00816A8093BC0077
:1003B000809194058111FCCF80919705109393054E
:1003C00010928E0581E0809395058093960510929A
:1003D000970510929C0510929B0510929A058091AA
:1003E000BC00816A8093BC00809195058111FCCF8F
:1003F00010918E054CE150E060E070E08091A50521
:10040000FFDE40E050E061E070E08091A505F8DE9D
:1004100012FD43C042E150E060E870E08091A50524
:10042000EFDE80917005882309F442C041EC50E072
:1004300062E870E08091A505E3DE44E750E063E800
:1004400070E08091A505DCDE41E750E061EA70E0F4
:100450008091A505D5DE4BEC50E06CE870E0809112
:10046000A505CEDE4AE850E06DE870E08091A50574
:10047000C7DE49E050E06EE870E08091A505C0DE7F
:100480004AE250E06FE870E08091A505B9DE0F9078
:10049000DF91CF911F910F91089541E150E060E805
:1004A00070E08091A505ACDE809170058111BECF12
:1004B00043EC50E062E870E08091A505A1DEBDCF7D
:1004C00044E050E068E870E08091A50599DE40CFF7
:1004D000AF92BF92CF92DF92EF92FF920F931F9352
:1004E000CF93DF9300D0CDB7DEB7182FA62EB42E52
:1004F00080918A059FE0998390E89A839E012F5FFF
:100500003F4F79013093900520938F056E0133E0C2
:10051000C30ED11CD0929205C09291058093930591
:1005200091E0909394059093960510929705109200
:100530009C0510929B0510929A05E0919805F09108
:100540009905309749F001E021E0A601B70109952E
:10055000E0919805F09199058091BC00816A8093A3
:10056000BC00809194058111FCCF8091970580910A
:10057000A50597E1998392E09A83F0929005E09225
:100580008F05D0929205C09291058093930591E0DA
:1005900090939405909396051092970510929C0560
:1005A00010929B0510929A05309749F001E021E0E6
:1005B000A601B7010995E0919805F0919905809100
:1005C000BC00816A8093BC00809194058111FCCFAE
:1005D0008091970580918A059FE099831A82F09215
:1005E0009005E0928F05D0929205C092910580937C
:1005F000930591E09093940590939605109297053A
:1006000010929C0510929B0510929A05309729F044
:1006100001E021E0A601B70109958091BC00816A43
:100620008093BC00809194058111FCCF8091970547
:1006300084EC99E00197F1F71111C1C04DEC50E045
:1006400062E570E080918A05DBDD40E060E070E00B
:1006500080918A058EDD40E86EE070E080918A0529
:1006600088DD40E050E06CE970E080918A05C8DDEB
:100670004FEF50E06CE970E080918A05C1DD40E009
:100680006EE070E080918A0574DD41E550E060E83D
:1006900070E080918A05B4DD41E550E061E870E0EA
:1006A00080918A05ADDD48E650E062E870E0809117
:1006B0008A05A6DD40E26EE070E080918A0559DD92
:1006C00043E664E470E080918A0553DD43E663E429
:1006D00070E080918A054DDD40E168E470E0809132
:1006E0008A0547DD41EB67E470E080918A0541DDD2
:1006F0004FE36CE470E080918A053BDD4FE36BE4EF
:1007000070E080918A0535DD41ED60E470E0809114
:100710008A052FDD40E06EE070E080918A0529DDDA
:10072000A110DEC044E062E070E080918A0521DD26
:1007300080918D05882359F080918C05823039F0A5
:100740004CEC63E070E080918A0513DD06C04CE854
:1007500063E070E080918A050CDD47EB64E070E0B7
:1007600080918A0506DD40E050E063E170E0809111
:100770008A0546DD41E150E064E170E080918A0540
:100780003FDD40E650E065E170E080918A0538DDAC
:10079000B11023C0112309F49BC041E050E067E190
:1007A00070E080918A052CDD43E150E068E170E063
:1007B00080918A0525DD80918A0540E11FC04EECBD
:1007C00050E063E570E080918A051ADD49E060E061
:1007D00070E080918A05CDDC3ECF44E450E067E1D3
:1007E00070E080918A050CDD44E850E068E170E03B
:1007F00080918A0505DD80918A0540E063EF70E015
:10080000B8DC40E450E06DE170E080918A05F8DCEE
:1008100042E050E061E370E080918A05F1DC4CEE4B
:100820006DE470E080918A05A4DC44E150E06BE661
:1008300070E080918A05E4DC4BE069EF70E0809124
:100840008A0597DC48ED50E068E370E080918A0506
:10085000D7DC48ED50E069E370E080918A05D0DC98
:1008600040E450E06EE070E080918A05C9DC40E829
:1008700050E060E870E080918A05C2DC4FE150E012
:1008800063E870E080918A05BBDC4FEF50E064E8DC
:1008900070E080918A05B4DC4FE050E065E870E0DC
:1008A00080918A05ADDC40E050E06EE070E0809120
:1008B0008A05A6DC17DD0F900F90DF91CF911F9175
:1008C0000F91FF90EF90DF90CF90BF90AF90089581
:1008D00041E450E067E170E080918A0591DC64CFEB
:1008E00044E162E070E080918A0543DC21CF109200
:1008F0009905109298058AE091E090936D05809398
:100900006C05E2E7F5E080E2808F84E8818F529801
:100910005A9A5E98569A5E9842983A9A42988AE213
:100920008093A5055F98579A5F98E0E6F5E01086FA
:1009300080E1818712861386E4E5F5E010868187E1
:10094000128613860895CF93DF93CDB7DEB7EC9769
:100950000FB6F894DEBF0FBECDBFF894A89584B74C
:10096000877F84BF809160008861809360001092CF
:100970006000789488EA91E60197F1F7F894559829
:100980005D9A27982F9A82E084BD95E095BD94E00A
:1009900097BD80936E002998219A29982A98229AC7
:1009A0002A982E98269A2E9844983C9845983D98D7
:1009B0008091B9008E7F8093B9008091B9008D7FBE
:1009C0008093B9008DEF8093B80085E48093BC00DC
:1009D00087E491E090936F0580936E057894429A36
:1009E0005F9A84EC99E0FC013197F1F75E9A5F9889
:1009F0000197F1F75F9A80E090E09E8F8D8F1F8EB8
:100A000018A280914A05882319F1CE0181966C01C4
:100A100044E150E060E070E0CE010196E9D4CE01FF
:100A200001967C01A3E0B1E09E01275F3F4FFC01EE
:100A30008BE404C02E173F0701F18D919191981717
:100A4000C9F38E01075E1F4FDE0151965D0122C082
:100A50008CE16E0191E2C90ED11CD601E82F1D92E6
:100A6000EA95E9F7F601A2E1B5E001900D928A95C9
:100A7000E1F781E080934A05CBCF8F859889039772
:100A800008F4C3C281E088A38E01075E1F4FFE01F8
:100A900071965F0148E050E062E071E0CE0101969E
:100AA0009ED48CE190E0A0E0B0E089879A87AB8784
:100AB000BC8782E090E09E878D8781E090E0988BF4
:100AC0008F871D8A1E8A1F8A188E8F8F88A1811199
:100AD0005FC08CE190E0A0E0B0E089879A87AB87A7
:100AE000BC8782E090E09E878D8781E090E0988BC4
:100AF0008F8780E0DE01119640E050E0BA01ED9171
:100B0000E827F0E0EE0FFF1FEE0FFF1FE65FFE4F3E
:100B1000452F562F672F7727408051806280738042
:100B20004425552566257725842FAA16BB0639F757
:100B3000498B5A8B6B8B7C8B80E040E050E0BA0194
:100B4000D701ED917D01E827F0E0EE0FFF1FEE0FDA
:100B5000FF1FE65FFE4F452F562F672F77278081B7
:100B60009181A281B381482759276A277B27842F47
:100B70000E151F0529F7498F5A8F6B8F7C8F6D8D4E
:100B80007E8D4CE150E0CE01019642D41F8E18A21A
:100B90009F898D898093530521E0911101C020E048
:100BA00020938D0590E041E02E89211101C040E0A5
:100BB000FC01E25FFA4FDC01A65FBA4F60818C91C5
:100BC00087DCE0915305F0E0E65FFA4F8081811108
:100BD0001AC2299AE0915305F0E0E65FFA4F80814E
:100BE000813009F40EC22A988E89882309F407C23D
:100BF0002E9A11E055245A94E12CFE01B2965F0121
:100C0000FF24F39442E0242E50E1352E63E1462E7A
:100C100074EC872E79E0972EF89490916B051092E2
:100C20006B057894F89480915F0510925F05789435
:100C3000992309F437C18111ADC1809153058823EF
:100C400009F4CCC1823069F41092710510928C05C0
:100C500040E06091520580E03BDC10925305299AF8
:100C60002A9880917005882349F08091530582303D
:100C700009F4A3C119999FC1299A2A9889B1F82F1B
:100C8000F4706F2E82FF10C011110EC0809171059B
:100C9000882351F080918C05882331F07E2CC4018B
:100CA0000197F1F7E72CB8CF10918A05712E39A280
:100CB000D0929005C0928F05B0929205A0929105B6
:100CC00010939305F0929405109296051092970553
:100CD00010929C0510929B0510929A05E091980540
:100CE000F0919905309761F000E021E0A501B6018F
:100CF000812F099510918A05E0919805F091990549
:100D00008091BC00816A8093BC0080919405811120
:100D1000FCCF809197057092930510928E05F0920A
:100D20009505F09296051092970510929C051092E9
:100D30009B0510929A058091BC00816A8093BC004B
:100D4000809195058111FCCF70908E0549A2D092BB
:100D50009005C0928F05B0929205A09291051093D4
:100D60009305F092940510929605109297051092B3
:100D70009C0510929B0510929A05309731F000E087
:100D800021E0A501B601812F09958091BC00816AFF
:100D90008093BC00809194058111FCCF80919705D0
:100DA0001093930510928E05F0929505F09296059A
:100DB0001092970510929C0510929B0510929A052F
:100DC0008091BC00816A8093BC008091950581115F
:100DD000FCCF20918E05E71409F4D7C0872D90E051
:100DE00095958795959587959595879595958795EB
:100DF00087709FEF591609F4DBC04E2D50E05595D2
:100E000047955595479555954795559547954770FD
:100E100031E0481791F1582E122F107440918C0533
:100E200091E0522F507124FF90E081E0413009F0B1
:100E300080E0981709F4ABC0511181C070FC1FC04D
:100E400080E080938C0580918D058823D1F04CEC57
:100E500063E070E080918A058CD931E08091710562
:100E600011111AC0823009F46CC0209271053ADA6F
:100E7000662009F46AC010E012CF30E0CCCF209297
:100E80008C054CE863E070E080918A0572D931E00E
:100E900080917105112331F3813009F452C0F09231
:100EA0007105E5CF882309F4DCCE809152058F25AA
:100EB00080935205882309F48CC02E9A80915205A4
:100EC000813009F07FC044E162E070E080918A05E2
:100ED00050D940E450E06EE070E080918A0590D9EE
:100EE00040E050E060E870E080918A0589D982EEA8
:100EF00094E00197F1F740E850E060E870E08091FD
:100F00008A057ED94FE150E063E870E080918A0560
:100F100077D94FEF50E064E870E080918A0570D98E
:100F20004FE050E065E870E080918A0569D940E0C3
:100F300050E06EE070E080918A0562D992CE81E047
:100F400080CF311194CF611096CF40E26EE070E017
:100F500080918A050ED943E663E470E080918A05AA
:100F600008D941EB67E470E080918A0502D94FE32C
:100F70006BE470E080918A05FCD840E06EE070E0A0
:100F800080918A05F6D811E08ACE30E045CF411134
:100F900065CF52CF809170058823E9F010927005DB
:100FA00080915305823041F12A98299A9BD959CED4
:100FB000582E31E031CF299860CE29981A995DCE0C
:100FC0002A9A5CCE44E062E070E080918A05D1D834
:100FD00080CF2E9873CFF0927005E8CF10927105F4
:100FE00010928C0540E06091520581E071DA209208
:100FF000530529982A9A35CE2A9A2998D7CF2E9820
:10100000F8CD2A9AF1CD2998E5CD2D853E8522305F
:10101000310531F081E08F8F2330310508F088A34E
:1010200080E05E01A1E1AA0EB11CDE01119640E054
:1010300050E0BA01ED91E827F0E0EE0FFF1FEE0F50
:10104000FF1FE65FFE4F452F562F672F7727008142
:101050001181228133814027512762277327842FF2
:10106000AA15BB0539F789899A89AB89BC894817C4
:1010700059076A077B0721F08E01075E1F4F0ACDD3
:1010800049855A856B857C85493351056105710514
:1010900098F760E070E082E195E0AAD109851A85B1
:1010A0002B853C850C3111052105310509F492C0D1
:1010B00004501109B8016E5E7A4F44E050E0C60159
:1010C0008ED18CE1E2E1F5E0DE01119601900D9206
:1010D0008A95E1F760E00115110509F490C049A077
:1010E0005AA06BA07CA072E1872E75E0972E80E05D
:1010F00090E0DC0120E030E0F40141914F01E42F69
:10110000E627F0E0EE0FFF1FEE0FFF1FE65FFE4F3A
:10111000492F5A2F6B2F772780819181A281B3812C
:1011200084279527A627B727682F2F5F3F4F2017C3
:10113000310710F321E084159505A605B70509F0E0
:1011400020E00831110509F466C080E08E01075ED9
:101150001F4FDE01119640E050E0BA01ED91E82703
:10116000F0E0EE0FFF1FEE0FFF1FE65FFE4F452F73
:10117000562F672F772740805180628073804425E7
:10118000552566257725842F0A171B0739F7498FC0
:101190005A8F6B8F7C8F81E08F8F222309F47ACC5A
:1011A0008D89843018F01D8A81E08F8F8E8982307E
:1011B00018F01E8A81E08F8F9F89923080F11F8AFC
:1011C00081E08F8F888D882309F480CC188E81E090
:1011D0008F8F7CCC8CE1E2E1F5E0DE01119601908D
:1011E0000D928A95E1F7498C5A8C6B8C7C8C49A2C4
:1011F0005AA26BA27CA260E008E110E074CF21E06B
:1012000089A19AA1ABA1BCA1892B8A2B8B2B09F4B4
:101210009CCF20E09ACF8E01075E1F4FBECF888DF6
:101220008111D4CF8F8D811151CCB3CC1F920F92ED
:101230000FB60F9211242F933F938F939F9389B1F1
:1012400091E0382F307285FD90E080916A05981703
:10125000B1F1809168058F5F8093680520916905E1
:10126000821731F123B1822F8095881F8827881F2C
:1012700090915E058917C9F090915C059F5F9093EE
:101280005C0530915D05931749F09F918F913F91D7
:101290002F910F900FBE0F901F90189580935E05B1
:1012A00027FD03C081E080935F0510925C05EDCFC0
:1012B00090936A05311103C081E080936B05109211
:1012C0006805D0CF1F920F920FB60F9211242F9363
:1012D0003F938F939F93AF93BF93EF93FF9380912F
:1012E000B900E82FE87F8E2F90E0FC013897E135B8
:1012F000F10588F4EC5CFF4FACC080919505882324
:1013000009F465C080919305880F81608093BB00CC
:1013100085EC8093BC00FF91EF91BF91AF919F91BD
:101320008F913F912F910F900FBE0F901F901895A6
:1013300081E080939C058091BB0080938E0585EDB4
:101340008093BC001092940510929505E4CF81E043
:1013500080939A05E0918F05F09190058091910519
:1013600090919205E817F90751F3CF0101969093F8
:10137000900580938F0580818093BB0085EC8093DE
:10138000BC00C9CF81E080939C05E0918F05F0916E
:1013900090052091910530919205E217F30729F706
:1013A00080939B05809196058111C9CF84E6809337
:1013B000BC0010929405AFCF81E080939A0585E838
:1013C0008093BC00A8CF81E080939705B8CF80912F
:1013D000930590E0880F991F8093BB0099CFFB0184
:1013E000DC0102C001900D9241505040D8F70895A1
:1013F000DC01CB01FC01F999FECF06C0F2BDE1BDD5
:10140000F89A319600B40D9241505040B8F70895C3
:10141000DC01A40FB51F4150504040F0CB01840FB8
:10142000951F2E9105D041505040D8F70895262F92
:10143000F999FECF92BD81BDF89A019700B40216CA
:1014400039F01FBA20BD0FB6F894FA9AF99A0FBE78
:101450000895EE0FFF1F0590F491E02D0994F89484
:02146000FFCFBC
:101462006C054B525955434F4E538DEF02D21BDF41
:1014720005A5A18E0C3C37BE0B4B942B6FD5021BDE
:1014820068A2B84A613B2E7A664CBF67D9DC2957FD
:10149200DEAB9306D7320536D045A6A3B4DB309334
:1014A200B3AC8AC2BA351CF2BD42E9FFB5CF7FCFD9
:1014B200B2B8C59EBB2153AEBC56F03BD8C8660B32
:1014C200DFBFDC5AD6264A6AD151DB776EC14D475F
:1014D20069B6F716602F61266758C2B303C65483F4
:1014E20004B1EED20D2878E20A5F45CF6CE9D3FF52
:1014F2006B9E69AE6207FF9E65705C0B01EECA3B94
:101502000699706A0F00E65A08777747B7E7E177DE
:10151200B0905B26B909CD16BE7E6E83DAE0F8B3D1
:10152200DD9742E2D40ED4D2D37921DFDBF4B7EFD8
:10153200DC830DBED51A9B8ED26D381BB6F3AE2B53
:10154200B184147AB81D824ABF6A135700FA8567BC
:10155200078D3F360E14A90609630A936DFD9CA3FD
:101562006A8A26F26313B0C264641DAEDEA48B9E47
:10157200D9D331CFD04AA7FFD73D046AB3A3925A39
:10158200B4D4280BBD4DBE3BBA3A2F2605AAB916D4
:1015920002DD03470B4495770C3336E268ADA0D2E7
:1015A2006FDA1A8366438CB3613479BE69B9EF8E00
:1015B2006ECE55DF6757C3EF6020607A04BEF64AED
:1015C20003C94C1B0A50DA2B0D274B36B2B7DD0686
:1015D200B5C06757BC59F167BB2E52F2DFB0C4C227
:1015E200D8C77E93D15EE8A3D629D58EB09F43BEDD
:1015F200B7E8F9EFBE716FDFB906CC4ADD985A7AC7
:10160200DAEFE02BD376761BD401E7066B917136C5
:101612006CE6CB67657F5D576208FEC2069668F28C
:1016220001E1D2A3087844930F0FB19E078227AE3F
:1016320000F59DFF096C0BCF0E1BA85A6A853E6A06
:101642006DF2843B646B120B631C8316DC8C1526D3
:10165200DBFBAF77D2623947D5159AD2B18B0CE258
:10166200B6FCB6B3BF652083B812AD6CBA3F3B5C23
:10167200BD48810DB4D1173DB3A6B4A8D73822987E
:10168200D04F98C9D9D60EF9DEA19FE4613109D4B1
:101692006646B3856FDF25B568A886200C36101024
:1016A2000B41AA4102D83C7105AFC97C0D225F4CA7
:1016B2000A55E51D03CC732D04BBD0B860254688BE
:1016C2006752FCD96ECB6AE969BCFBF4D62C6DC4B7
:1016D200D15BD795D8C241A5DFB5E230BB2B7400F0
:1016E200BC5CCE51B5C55861B2B2654CD404F37C32
:1016F200D373492DDAEADF1DDD9D7C88B903EAB890
:10170200BE7450E9B7EDC6D9B09A57C40F0AC1F4F6
:10171200087D7BA501E4ED9506934E00620DD8305D
:10172200657A62616CE3F4516B94015C6319976CA6
:10173200646E2D3D6DF7BB0D6A8018980E1E8EA843
:10174200096934F900F0A2C9078733D4B817A5E4B0
:10175200BF601FB5B6F98985B18E2A10D510BC209D
:10176200D2670671DBFE9041DC893D2D6649AB1DD7
:10177200613E114C68A7877C6FD024E90B4EB2D929
:101782000C39088805A09EB802D70FA5BD479995C8
:10179200BA3023C4B3A9B5F4B4DE1661D040805187
:1017A200D7373A00DEAEAC30D9D9593DD154CF0D3E
:1017B200D623755CDFBAE36CD8CD40F9BC53D6C9E9
:1017C200BB246C98B2BDFAA8B5CA6BB50A5AFD859E
:1017D2000D2D47D404B4D1E403C37271675DE441B3
:1017E200602A5E1069B3C8206EC4F50D0872633DAD
:1017F2000F05D96C069C4F5C01EBECC965757AF953
:101802006202C0A86B9B56986CECC785D37C51B51D
:10181200D40BEBE4DD927DD4DAE5DE41BE7B487188
:10182200B90CF220B0956410B7E2911DBF6F072D7D
:10183200B818BD7CB1812B4CB6F688D9D2681EE9A6
:10184200D51FA4B8DC863288DBF1A395646135A587
:1018520063168FF46A8F19C46DF8BA5109662C6148
:101862000E1196300788000000FF00000101000100
:02187200000173
:00000001FF
